{
  "address": "0xE0c04a9F73788A48FBfd3A134Fb46A83434abFa1",
  "abi": [
    {
      "inputs": [
        {
          "internalType": "address",
          "name": "beneficiaryAddress",
          "type": "address"
        },
        {
          "internalType": "uint64",
          "name": "startTimestamp",
          "type": "uint64"
        },
        {
          "internalType": "uint64",
          "name": "durationSeconds",
          "type": "uint64"
        }
      ],
      "stateMutability": "payable",
      "type": "constructor"
    },
    {
      "anonymous": false,
      "inputs": [
        {
          "indexed": true,
          "internalType": "address",
          "name": "token",
          "type": "address"
        },
        {
          "indexed": false,
          "internalType": "uint256",
          "name": "amount",
          "type": "uint256"
        }
      ],
      "name": "ERC20Released",
      "type": "event"
    },
    {
      "anonymous": false,
      "inputs": [
        {
          "indexed": false,
          "internalType": "uint256",
          "name": "amount",
          "type": "uint256"
        }
      ],
      "name": "EtherReleased",
      "type": "event"
    },
    {
      "inputs": [],
      "name": "beneficiary",
      "outputs": [
        {
          "internalType": "address",
          "name": "",
          "type": "address"
        }
      ],
      "stateMutability": "view",
      "type": "function"
    },
    {
      "inputs": [],
      "name": "duration",
      "outputs": [
        {
          "internalType": "uint256",
          "name": "",
          "type": "uint256"
        }
      ],
      "stateMutability": "view",
      "type": "function"
    },
    {
      "inputs": [
        {
          "internalType": "address",
          "name": "token",
          "type": "address"
        }
      ],
      "name": "releasable",
      "outputs": [
        {
          "internalType": "uint256",
          "name": "",
          "type": "uint256"
        }
      ],
      "stateMutability": "view",
      "type": "function"
    },
    {
      "inputs": [],
      "name": "releasable",
      "outputs": [
        {
          "internalType": "uint256",
          "name": "",
          "type": "uint256"
        }
      ],
      "stateMutability": "view",
      "type": "function"
    },
    {
      "inputs": [
        {
          "internalType": "address",
          "name": "token",
          "type": "address"
        }
      ],
      "name": "release",
      "outputs": [],
      "stateMutability": "nonpayable",
      "type": "function"
    },
    {
      "inputs": [],
      "name": "release",
      "outputs": [],
      "stateMutability": "nonpayable",
      "type": "function"
    },
    {
      "inputs": [],
      "name": "released",
      "outputs": [
        {
          "internalType": "uint256",
          "name": "",
          "type": "uint256"
        }
      ],
      "stateMutability": "view",
      "type": "function"
    },
    {
      "inputs": [
        {
          "internalType": "address",
          "name": "token",
          "type": "address"
        }
      ],
      "name": "released",
      "outputs": [
        {
          "internalType": "uint256",
          "name": "",
          "type": "uint256"
        }
      ],
      "stateMutability": "view",
      "type": "function"
    },
    {
      "inputs": [],
      "name": "start",
      "outputs": [
        {
          "internalType": "uint256",
          "name": "",
          "type": "uint256"
        }
      ],
      "stateMutability": "view",
      "type": "function"
    },
    {
      "inputs": [
        {
          "internalType": "uint64",
          "name": "timestamp",
          "type": "uint64"
        }
      ],
      "name": "vestedAmount",
      "outputs": [
        {
          "internalType": "uint256",
          "name": "",
          "type": "uint256"
        }
      ],
      "stateMutability": "view",
      "type": "function"
    },
    {
      "inputs": [
        {
          "internalType": "address",
          "name": "token",
          "type": "address"
        },
        {
          "internalType": "uint64",
          "name": "timestamp",
          "type": "uint64"
        }
      ],
      "name": "vestedAmount",
      "outputs": [
        {
          "internalType": "uint256",
          "name": "",
          "type": "uint256"
        }
      ],
      "stateMutability": "view",
      "type": "function"
    },
    {
      "stateMutability": "payable",
      "type": "receive"
    }
  ],
  "transactionHash": "0x95ce19cb2a7d4cd641f2d0bf67ebfeed111978c423daa32d28508e37d8208c79",
  "args": [
    "0x63492E70d77af90f868B3d64C12A73D27155EDAA",
    1668387711,
    "31536000"
  ],
  "numDeployments": 1,
  "solcInputHash": "b9719cc255a623b72b60b7b9a7cf14f1",
  "bytecode": "0x60e0604052604051610cd5380380610cd5833981016040819052610022916100d0565b6001600160a01b03831661008f5760405162461bcd60e51b815260206004820152602a60248201527f56657374696e6757616c6c65743a2062656e6566696369617279206973207a65604482015269726f206164647265737360b01b606482015260840160405180910390fd5b6001600160a01b039092166080526001600160401b0390811660a0521660c052610121565b80516001600160401b03811681146100cb57600080fd5b919050565b6000806000606084860312156100e557600080fd5b83516001600160a01b03811681146100fc57600080fd5b925061010a602085016100b4565b9150610118604085016100b4565b90509250925092565b60805160a05160c051610b6a61016b6000396000818160ee015281816104ce01526105230152600061046a015260008181610158015281816102f1015261040a0152610b6a6000f3fe6080604052600436106100a05760003560e01c806386d1a69f1161006457806386d1a69f146101a257806396132521146101b75780639852595c146101cc578063a3f8eace14610202578063be9a655514610222578063fbccedae1461023757600080fd5b80630a17b06b146100ac5780630fb5a6b4146100df578063191655871461011c57806338af3eed1461013e578063810ec23b1461018257600080fd5b366100a757005b600080fd5b3480156100b857600080fd5b506100cc6100c7366004610974565b61024c565b6040519081526020015b60405180910390f35b3480156100eb57600080fd5b507f000000000000000000000000000000000000000000000000000000000000000067ffffffffffffffff166100cc565b34801561012857600080fd5b5061013c6101373660046109a6565b610270565b005b34801561014a57600080fd5b506040516001600160a01b037f00000000000000000000000000000000000000000000000000000000000000001681526020016100d6565b34801561018e57600080fd5b506100cc61019d3660046109c1565b61031a565b3480156101ae57600080fd5b5061013c6103b0565b3480156101c357600080fd5b506000546100cc565b3480156101d857600080fd5b506100cc6101e73660046109a6565b6001600160a01b031660009081526001602052604090205490565b34801561020e57600080fd5b506100cc61021d3660046109a6565b610432565b34801561022e57600080fd5b506100cc61045f565b34801561024357600080fd5b506100cc61048d565b600061026a61025a60005490565b6102649047610a0a565b836104a9565b92915050565b600061027b82610432565b6001600160a01b0383166000908152600160205260408120805492935083929091906102a8908490610a0a565b90915550506040518181526001600160a01b038316907fc0e523490dd523c33b1878c9eb14ff46991e3f5b2cd33710918618f2a39cba1b9060200160405180910390a2610316827f000000000000000000000000000000000000000000000000000000000000000083610583565b5050565b6001600160a01b0382166000908152600160205260408120546103a9906040516370a0823160e01b81523060048201526001600160a01b038616906370a0823190602401602060405180830381865afa15801561037b573d6000803e3d6000fd5b505050506040513d601f19601f8201168201806040525081019061039f9190610a22565b6102649190610a0a565b9392505050565b60006103ba61048d565b9050806000808282546103cd9190610a0a565b90915550506040518181527fda9d4e5f101b8b9b1c5b76d0c5a9f7923571acfc02376aa076b75a8c080c956b9060200160405180910390a161042f7f0000000000000000000000000000000000000000000000000000000000000000826105da565b50565b6001600160a01b038116600090815260016020526040812054610455834261031a565b61026a9190610a3b565b67ffffffffffffffff7f00000000000000000000000000000000000000000000000000000000000000001690565b6000805461049a4261024c565b6104a49190610a3b565b905090565b60006104b361045f565b8267ffffffffffffffff1610156104cc5750600061026a565b7f000000000000000000000000000000000000000000000000000000000000000067ffffffffffffffff166104ff61045f565b6105099190610a0a565b8267ffffffffffffffff16111561052157508161026a565b7f000000000000000000000000000000000000000000000000000000000000000067ffffffffffffffff1661055461045f565b6105689067ffffffffffffffff8516610a3b565b6105729085610a52565b61057c9190610a71565b905061026a565b604080516001600160a01b038416602482015260448082018490528251808303909101815260649091019091526020810180516001600160e01b031663a9059cbb60e01b1790526105d59084906106f8565b505050565b8047101561062f5760405162461bcd60e51b815260206004820152601d60248201527f416464726573733a20696e73756666696369656e742062616c616e636500000060448201526064015b60405180910390fd5b6000826001600160a01b03168260405160006040518083038185875af1925050503d806000811461067c576040519150601f19603f3d011682016040523d82523d6000602084013e610681565b606091505b50509050806105d55760405162461bcd60e51b815260206004820152603a60248201527f416464726573733a20756e61626c6520746f2073656e642076616c75652c207260448201527f6563697069656e74206d617920686176652072657665727465640000000000006064820152608401610626565b600061074d826040518060400160405280602081526020017f5361666545524332303a206c6f772d6c6576656c2063616c6c206661696c6564815250856001600160a01b03166107ca9092919063ffffffff16565b8051909150156105d5578080602001905181019061076b9190610a93565b6105d55760405162461bcd60e51b815260206004820152602a60248201527f5361666545524332303a204552433230206f7065726174696f6e20646964206e6044820152691bdd081cdd58d8d9595960b21b6064820152608401610626565b60606107d984846000856107e1565b949350505050565b6060824710156108425760405162461bcd60e51b815260206004820152602660248201527f416464726573733a20696e73756666696369656e742062616c616e636520666f6044820152651c8818d85b1b60d21b6064820152608401610626565b600080866001600160a01b0316858760405161085e9190610ae5565b60006040518083038185875af1925050503d806000811461089b576040519150601f19603f3d011682016040523d82523d6000602084013e6108a0565b606091505b50915091506108b1878383876108bc565b979650505050505050565b60608315610928578251610921576001600160a01b0385163b6109215760405162461bcd60e51b815260206004820152601d60248201527f416464726573733a2063616c6c20746f206e6f6e2d636f6e74726163740000006044820152606401610626565b50816107d9565b6107d9838381511561093d5781518083602001fd5b8060405162461bcd60e51b81526004016106269190610b01565b803567ffffffffffffffff8116811461096f57600080fd5b919050565b60006020828403121561098657600080fd5b6103a982610957565b80356001600160a01b038116811461096f57600080fd5b6000602082840312156109b857600080fd5b6103a98261098f565b600080604083850312156109d457600080fd5b6109dd8361098f565b91506109eb60208401610957565b90509250929050565b634e487b7160e01b600052601160045260246000fd5b60008219821115610a1d57610a1d6109f4565b500190565b600060208284031215610a3457600080fd5b5051919050565b600082821015610a4d57610a4d6109f4565b500390565b6000816000190483118215151615610a6c57610a6c6109f4565b500290565b600082610a8e57634e487b7160e01b600052601260045260246000fd5b500490565b600060208284031215610aa557600080fd5b815180151581146103a957600080fd5b60005b83811015610ad0578181015183820152602001610ab8565b83811115610adf576000848401525b50505050565b60008251610af7818460208701610ab5565b9190910192915050565b6020815260008251806020840152610b20816040850160208701610ab5565b601f01601f1916919091016040019291505056fea26469706673582212203f4456e259b5736b6910f5b8f7aa950f5120c793573557d82de9580297b71b1064736f6c634300080a0033",
  "devdoc": {
    "details": "This contract handles the vesting of Eth and ERC20 tokens for a given beneficiary. Custody of multiple tokens can be given to this contract, which will release the token to the beneficiary following a given vesting schedule. The vesting schedule is customizable through the {vestedAmount} function. Any token transferred to this contract will follow the vesting schedule as if they were locked from the beginning. Consequently, if the vesting has already started, any amount of tokens sent to this contract will (at least partly) be immediately releasable.",
    "kind": "dev",
    "methods": {
      "beneficiary()": {
        "details": "Getter for the beneficiary address."
      },
      "constructor": {
        "details": "Set the beneficiary, start timestamp and vesting duration of the vesting wallet."
      },
      "duration()": {
        "details": "Getter for the vesting duration."
      },
      "releasable()": {
        "details": "Getter for the amount of releasable eth."
      },
      "releasable(address)": {
        "details": "Getter for the amount of releasable `token` tokens. `token` should be the address of an IERC20 contract."
      },
      "release()": {
        "details": "Release the native token (ether) that have already vested. Emits a {EtherReleased} event."
      },
      "release(address)": {
        "details": "Release the tokens that have already vested. Emits a {ERC20Released} event."
      },
      "released()": {
        "details": "Amount of eth already released"
      },
      "released(address)": {
        "details": "Amount of token already released"
      },
      "start()": {
        "details": "Getter for the start timestamp."
      },
      "vestedAmount(address,uint64)": {
        "details": "Calculates the amount of tokens that has already vested. Default implementation is a linear vesting curve."
      },
      "vestedAmount(uint64)": {
        "details": "Calculates the amount of ether that has already vested. Default implementation is a linear vesting curve."
      }
    },
    "title": "VestingWallet",
    "version": 1
  },
  "userdoc": {
    "kind": "user",
    "methods": {},
    "version": 1
  },
  "storageLayout": {
    "storage": [
      {
        "astId": 1144,
        "contract": "contracts/VestingWalletLinear.sol:VestingWalletLinear",
        "label": "_released",
        "offset": 0,
        "slot": "0",
        "type": "t_uint256"
      },
      {
        "astId": 1148,
        "contract": "contracts/VestingWalletLinear.sol:VestingWalletLinear",
        "label": "_erc20Released",
        "offset": 0,
        "slot": "1",
        "type": "t_mapping(t_address,t_uint256)"
      }
    ],
    "types": {
      "t_address": {
        "encoding": "inplace",
        "label": "address",
        "numberOfBytes": "20"
      },
      "t_mapping(t_address,t_uint256)": {
        "encoding": "mapping",
        "key": "t_address",
        "label": "mapping(address => uint256)",
        "numberOfBytes": "32",
        "value": "t_uint256"
      },
      "t_uint256": {
        "encoding": "inplace",
        "label": "uint256",
        "numberOfBytes": "32"
      }
    }
  }
}